{"abi":[{"type":"constructor","inputs":[{"name":"subscriptionId","type":"uint256","internalType":"uint256"},{"name":"gasLane","type":"bytes32","internalType":"bytes32"},{"name":"interval","type":"uint256","internalType":"uint256"},{"name":"entranceFee","type":"uint256","internalType":"uint256"},{"name":"callbackGasLimit","type":"uint32","internalType":"uint32"},{"name":"vrfCoodininator","type":"address","internalType":"address"}],"stateMutability":"nonpayable"},{"type":"function","name":"acceptOwnership","inputs":[],"outputs":[],"stateMutability":"nonpayable"},{"type":"function","name":"checkUpkeep","inputs":[{"name":"","type":"bytes","internalType":"bytes"}],"outputs":[{"name":"upkeepNeeded","type":"bool","internalType":"bool"},{"name":"","type":"bytes","internalType":"bytes"}],"stateMutability":"view"},{"type":"function","name":"enterRaffle","inputs":[],"outputs":[],"stateMutability":"payable"},{"type":"function","name":"getEntranceFee","inputs":[],"outputs":[{"name":"","type":"uint256","internalType":"uint256"}],"stateMutability":"view"},{"type":"function","name":"getLastTimeStamp","inputs":[],"outputs":[{"name":"","type":"uint256","internalType":"uint256"}],"stateMutability":"view"},{"type":"function","name":"getPlayer","inputs":[{"name":"indexOfPlayer","type":"uint256","internalType":"uint256"}],"outputs":[{"name":"","type":"address","internalType":"address"}],"stateMutability":"view"},{"type":"function","name":"getRaffleState","inputs":[],"outputs":[{"name":"","type":"uint8","internalType":"enum Raffle.RaffleState"}],"stateMutability":"view"},{"type":"function","name":"getRecentWinner","inputs":[],"outputs":[{"name":"","type":"address","internalType":"address"}],"stateMutability":"view"},{"type":"function","name":"owner","inputs":[],"outputs":[{"name":"","type":"address","internalType":"address"}],"stateMutability":"view"},{"type":"function","name":"performUpkeep","inputs":[{"name":"","type":"bytes","internalType":"bytes"}],"outputs":[],"stateMutability":"nonpayable"},{"type":"function","name":"rawFulfillRandomWords","inputs":[{"name":"requestId","type":"uint256","internalType":"uint256"},{"name":"randomWords","type":"uint256[]","internalType":"uint256[]"}],"outputs":[],"stateMutability":"nonpayable"},{"type":"function","name":"s_vrfCoordinator","inputs":[],"outputs":[{"name":"","type":"address","internalType":"contract IVRFCoordinatorV2Plus"}],"stateMutability":"view"},{"type":"function","name":"setCoordinator","inputs":[{"name":"_vrfCoordinator","type":"address","internalType":"address"}],"outputs":[],"stateMutability":"nonpayable"},{"type":"function","name":"transferOwnership","inputs":[{"name":"to","type":"address","internalType":"address"}],"outputs":[],"stateMutability":"nonpayable"},{"type":"event","name":"CoordinatorSet","inputs":[{"name":"vrfCoordinator","type":"address","indexed":false,"internalType":"address"}],"anonymous":false},{"type":"event","name":"OwnershipTransferRequested","inputs":[{"name":"from","type":"address","indexed":true,"internalType":"address"},{"name":"to","type":"address","indexed":true,"internalType":"address"}],"anonymous":false},{"type":"event","name":"OwnershipTransferred","inputs":[{"name":"from","type":"address","indexed":true,"internalType":"address"},{"name":"to","type":"address","indexed":true,"internalType":"address"}],"anonymous":false},{"type":"event","name":"RaffleEntered","inputs":[{"name":"player","type":"address","indexed":false,"internalType":"address"}],"anonymous":false},{"type":"event","name":"RequestedRaffleWinner","inputs":[{"name":"requestId","type":"uint256","indexed":true,"internalType":"uint256"}],"anonymous":false},{"type":"event","name":"WinnerPicked","inputs":[{"name":"winner","type":"address","indexed":true,"internalType":"address"}],"anonymous":false},{"type":"error","name":"OnlyCoordinatorCanFulfill","inputs":[{"name":"have","type":"address","internalType":"address"},{"name":"want","type":"address","internalType":"address"}]},{"type":"error","name":"OnlyOwnerOrCoordinator","inputs":[{"name":"have","type":"address","internalType":"address"},{"name":"owner","type":"address","internalType":"address"},{"name":"coordinator","type":"address","internalType":"address"}]},{"type":"error","name":"Raffle__RaffleNotOpen","inputs":[]},{"type":"error","name":"Raffle__SendMoreToEnterRaffle","inputs":[]},{"type":"error","name":"Raffle__TransferFailed","inputs":[]},{"type":"error","name":"Raffle__UpkeepNotNeeded","inputs":[{"name":"balance","type":"uint256","internalType":"uint256"},{"name":"playersLength","type":"uint256","internalType":"uint256"},{"name":"raffleState","type":"uint256","internalType":"uint256"}]},{"type":"error","name":"ZeroAddress","inputs":[]}],"bytecode":{"object":"0x6101206040523480156200001257600080fd5b5060405162002445380380620024458339818101604052810190620000389190620004a7565b80338060008073ffffffffffffffffffffffffffffffffffffffff168273ffffffffffffffffffffffffffffffffffffffff1603620000ae576040517f08c379a0000000000000000000000000000000000000000000000000000000008152600401620000a590620005a4565b60405180910390fd5b816000806101000a81548173ffffffffffffffffffffffffffffffffffffffff021916908373ffffffffffffffffffffffffffffffffffffffff160217905550600073ffffffffffffffffffffffffffffffffffffffff168173ffffffffffffffffffffffffffffffffffffffff1614620001355762000134816200025760201b60201c565b5b505050600073ffffffffffffffffffffffffffffffffffffffff168173ffffffffffffffffffffffffffffffffffffffff16036200019f576040517fd92e233d00000000000000000000000000000000000000000000000000000000815260040160405180910390fd5b80600260006101000a81548173ffffffffffffffffffffffffffffffffffffffff021916908373ffffffffffffffffffffffffffffffffffffffff1602179055505082608081815250508360a081815250508460c081815250508560e081815250508163ffffffff166101008163ffffffff1681525050426004819055506000600560146101000a81548160ff02191690836001811115620002465762000245620005c6565b5b021790555050505050505062000667565b3373ffffffffffffffffffffffffffffffffffffffff168173ffffffffffffffffffffffffffffffffffffffff1603620002c8576040517f08c379a0000000000000000000000000000000000000000000000000000000008152600401620002bf9062000645565b60405180910390fd5b80600160006101000a81548173ffffffffffffffffffffffffffffffffffffffff021916908373ffffffffffffffffffffffffffffffffffffffff1602179055508073ffffffffffffffffffffffffffffffffffffffff1660008054906101000a900473ffffffffffffffffffffffffffffffffffffffff1673ffffffffffffffffffffffffffffffffffffffff167fed8889f560326eb138920d842192f0eb3dd22b4f139c87a2c57538e05bae127860405160405180910390a350565b600080fd5b6000819050919050565b620003a0816200038b565b8114620003ac57600080fd5b50565b600081519050620003c08162000395565b92915050565b6000819050919050565b620003db81620003c6565b8114620003e757600080fd5b50565b600081519050620003fb81620003d0565b92915050565b600063ffffffff82169050919050565b6200041c8162000401565b81146200042857600080fd5b50565b6000815190506200043c8162000411565b92915050565b600073ffffffffffffffffffffffffffffffffffffffff82169050919050565b60006200046f8262000442565b9050919050565b620004818162000462565b81146200048d57600080fd5b50565b600081519050620004a18162000476565b92915050565b60008060008060008060c08789031215620004c757620004c662000386565b5b6000620004d789828a01620003af565b9650506020620004ea89828a01620003ea565b9550506040620004fd89828a01620003af565b94505060606200051089828a01620003af565b93505060806200052389828a016200042b565b92505060a06200053689828a0162000490565b9150509295509295509295565b600082825260208201905092915050565b7f43616e6e6f7420736574206f776e657220746f207a65726f0000000000000000600082015250565b60006200058c60188362000543565b9150620005998262000554565b602082019050919050565b60006020820190508181036000830152620005bf816200057d565b9050919050565b7f4e487b7100000000000000000000000000000000000000000000000000000000600052602160045260246000fd5b7f43616e6e6f74207472616e7366657220746f2073656c66000000000000000000600082015250565b60006200062d60178362000543565b91506200063a82620005f5565b602082019050919050565b6000602082019050818103600083015262000660816200061e565b9050919050565b60805160a05160c05160e05161010051611d92620006b360003960006106a6015260006106750152600061064f01526000610804015260008181610328015261042b0152611d926000f3fe6080604052600436106100dd5760003560e01c806379ba50971161007f5780639eccacf6116100595780639eccacf614610268578063c1c244e814610293578063e55ae4e8146102be578063f2fde38b146102fb576100dd565b806379ba5097146101fd5780638da5cb5b146102145780638ea981171461023f576100dd565b80632cfcc539116100bb5780632cfcc539146101615780634585e33b1461016b578063473f1ddc146101945780636e04ff0d146101bf576100dd565b806309bc33a7146100e2578063115cbaf51461010d5780631fe543e314610138575b600080fd5b3480156100ee57600080fd5b506100f7610324565b6040516101049190611252565b60405180910390f35b34801561011957600080fd5b5061012261034c565b60405161012f91906112e4565b60405180910390f35b34801561014457600080fd5b5061015f600480360381019061015a91906113a4565b610363565b005b610169610429565b005b34801561017757600080fd5b50610192600480360381019061018d919061145a565b61058c565b005b3480156101a057600080fd5b506101a96107d2565b6040516101b691906114e8565b60405180910390f35b3480156101cb57600080fd5b506101e660048036038101906101e19190611644565b6107fc565b6040516101f4929190611727565b60405180910390f35b34801561020957600080fd5b506102126108be565b005b34801561022057600080fd5b50610229610a53565b60405161023691906114e8565b60405180910390f35b34801561024b57600080fd5b5061026660048036038101906102619190611783565b610a7c565b005b34801561027457600080fd5b5061027d610c5d565b60405161028a919061180f565b60405180910390f35b34801561029f57600080fd5b506102a8610c83565b6040516102b59190611252565b60405180910390f35b3480156102ca57600080fd5b506102e560048036038101906102e0919061182a565b610c8d565b6040516102f291906114e8565b60405180910390f35b34801561030757600080fd5b50610322600480360381019061031d9190611783565b610cd5565b005b60007f0000000000000000000000000000000000000000000000000000000000000000905090565b6000600560149054906101000a900460ff16905090565b600260009054906101000a900473ffffffffffffffffffffffffffffffffffffffff1673ffffffffffffffffffffffffffffffffffffffff163373ffffffffffffffffffffffffffffffffffffffff16146104195733600260009054906101000a900473ffffffffffffffffffffffffffffffffffffffff166040517f1cf993f4000000000000000000000000000000000000000000000000000000008152600401610410929190611857565b60405180910390fd5b610424838383610ce9565b505050565b7f0000000000000000000000000000000000000000000000000000000000000000341015610483576040517f3038c00a00000000000000000000000000000000000000000000000000000000815260040160405180910390fd5b600060018111156104975761049661126d565b5b600560149054906101000a900460ff1660018111156104b9576104b861126d565b5b146104f0576040517fd24a271400000000000000000000000000000000000000000000000000000000815260040160405180910390fd5b6003339080600181540180825580915050600190039060005260206000200160009091909190916101000a81548173ffffffffffffffffffffffffffffffffffffffff021916908373ffffffffffffffffffffffffffffffffffffffff1602179055507f634f3211e3a4e43fee5a21ad9f87ca153b300fc78b1c557a2057dbe9c63bcb473360405161058291906114e8565b60405180910390a1565b60006105a6604051806020016040528060008152506107fc565b509050806106155747600380549050600560149054906101000a900460ff1660018111156105d7576105d661126d565b5b6040517f584327aa00000000000000000000000000000000000000000000000000000000815260040161060c93929190611880565b60405180910390fd5b6001600560146101000a81548160ff0219169083600181111561063b5761063a61126d565b5b021790555060006040518060c001604052807f000000000000000000000000000000000000000000000000000000000000000081526020017f00000000000000000000000000000000000000000000000000000000000000008152602001600361ffff1681526020017f000000000000000000000000000000000000000000000000000000000000000063ffffffff168152602001600163ffffffff1681526020016106f7604051806020016040528060001515815250610f3e565b81525090506000600260009054906101000a900473ffffffffffffffffffffffffffffffffffffffff1673ffffffffffffffffffffffffffffffffffffffff16639b1c385e836040518263ffffffff1660e01b815260040161075991906119ee565b6020604051808303816000875af1158015610778573d6000803e3d6000fd5b505050506040513d601f19601f8201168201806040525081019061079c9190611a25565b9050807fcd6e45c8998311cab7e9d4385596cac867e20a0587194b954fa3a731c93ce78b60405160405180910390a25050505050565b6000600560009054906101000a900473ffffffffffffffffffffffffffffffffffffffff16905090565b6000606060007f0000000000000000000000000000000000000000000000000000000000000000600454426108319190611a81565b10159050600080600181111561084a5761084961126d565b5b600560149054906101000a900460ff16600181111561086c5761086b61126d565b5b1490506000804711905060008060038054905011905083801561088c5750825b80156108955750815b801561089e5750805b955085604051806020016040528060008152509550955050505050915091565b600160009054906101000a900473ffffffffffffffffffffffffffffffffffffffff1673ffffffffffffffffffffffffffffffffffffffff163373ffffffffffffffffffffffffffffffffffffffff161461094e576040517f08c379a000000000000000000000000000000000000000000000000000000000815260040161094590611b12565b60405180910390fd5b60008060009054906101000a900473ffffffffffffffffffffffffffffffffffffffff169050336000806101000a81548173ffffffffffffffffffffffffffffffffffffffff021916908373ffffffffffffffffffffffffffffffffffffffff1602179055506000600160006101000a81548173ffffffffffffffffffffffffffffffffffffffff021916908373ffffffffffffffffffffffffffffffffffffffff1602179055503373ffffffffffffffffffffffffffffffffffffffff168173ffffffffffffffffffffffffffffffffffffffff167f8be0079c531659141344cd1fd0a4f28419497f9722a3daafe3b4186f6b6457e060405160405180910390a350565b60008060009054906101000a900473ffffffffffffffffffffffffffffffffffffffff16905090565b610a84610a53565b73ffffffffffffffffffffffffffffffffffffffff163373ffffffffffffffffffffffffffffffffffffffff1614158015610b0d5750600260009054906101000a900473ffffffffffffffffffffffffffffffffffffffff1673ffffffffffffffffffffffffffffffffffffffff163373ffffffffffffffffffffffffffffffffffffffff1614155b15610b7c5733610b1b610a53565b600260009054906101000a900473ffffffffffffffffffffffffffffffffffffffff166040517f061db9c1000000000000000000000000000000000000000000000000000000008152600401610b7393929190611b32565b60405180910390fd5b600073ffffffffffffffffffffffffffffffffffffffff168173ffffffffffffffffffffffffffffffffffffffff1603610be2576040517fd92e233d00000000000000000000000000000000000000000000000000000000815260040160405180910390fd5b80600260006101000a81548173ffffffffffffffffffffffffffffffffffffffff021916908373ffffffffffffffffffffffffffffffffffffffff1602179055507fd1a6a14209a385a964d036e404cb5cfb71f4000cdb03c9366292430787261be681604051610c5291906114e8565b60405180910390a150565b600260009054906101000a900473ffffffffffffffffffffffffffffffffffffffff1681565b6000600454905090565b600060038281548110610ca357610ca2611b69565b5b9060005260206000200160009054906101000a900473ffffffffffffffffffffffffffffffffffffffff169050919050565b610cdd610fd6565b610ce681611066565b50565b600060038054905083836000818110610d0557610d04611b69565b5b90506020020135610d169190611bc7565b9050600060038281548110610d2e57610d2d611b69565b5b9060005260206000200160009054906101000a900473ffffffffffffffffffffffffffffffffffffffff16905080600560006101000a81548173ffffffffffffffffffffffffffffffffffffffff021916908373ffffffffffffffffffffffffffffffffffffffff1602179055506000600560146101000a81548160ff02191690836001811115610dc257610dc161126d565b5b0217905550600067ffffffffffffffff811115610de257610de1611519565b5b604051908082528060200260200182016040528015610e105781602001602082028036833780820191505090505b5060039080519060200190610e26929190611192565b5042600481905550600560009054906101000a900473ffffffffffffffffffffffffffffffffffffffff1673ffffffffffffffffffffffffffffffffffffffff167f5b690ec4a06fe979403046eaeea5b3ce38524683c3001f662c8b5a829632f7df60405160405180910390a260008173ffffffffffffffffffffffffffffffffffffffff1647604051610eb990611c29565b60006040518083038185875af1925050503d8060008114610ef6576040519150601f19603f3d011682016040523d82523d6000602084013e610efb565b606091505b5050905080610f36576040517fa1d04b3900000000000000000000000000000000000000000000000000000000815260040160405180910390fd5b505050505050565b60607f92fd13387c7fe7befbc38d303d6468778fb9731bc4583f17d92989c6fcfdeaaa82604051602401610f729190611c69565b604051602081830303815290604052907bffffffffffffffffffffffffffffffffffffffffffffffffffffffff19166020820180517bffffffffffffffffffffffffffffffffffffffffffffffffffffffff83818316178352505050509050919050565b60008054906101000a900473ffffffffffffffffffffffffffffffffffffffff1673ffffffffffffffffffffffffffffffffffffffff163373ffffffffffffffffffffffffffffffffffffffff1614611064576040517f08c379a000000000000000000000000000000000000000000000000000000000815260040161105b90611cd0565b60405180910390fd5b565b3373ffffffffffffffffffffffffffffffffffffffff168173ffffffffffffffffffffffffffffffffffffffff16036110d4576040517f08c379a00000000000000000000000000000000000000000000000000000000081526004016110cb90611d3c565b60405180910390fd5b80600160006101000a81548173ffffffffffffffffffffffffffffffffffffffff021916908373ffffffffffffffffffffffffffffffffffffffff1602179055508073ffffffffffffffffffffffffffffffffffffffff1660008054906101000a900473ffffffffffffffffffffffffffffffffffffffff1673ffffffffffffffffffffffffffffffffffffffff167fed8889f560326eb138920d842192f0eb3dd22b4f139c87a2c57538e05bae127860405160405180910390a350565b82805482825590600052602060002090810192821561120b579160200282015b8281111561120a5782518260006101000a81548173ffffffffffffffffffffffffffffffffffffffff021916908373ffffffffffffffffffffffffffffffffffffffff160217905550916020019190600101906111b2565b5b509050611218919061121c565b5090565b5b8082111561123557600081600090555060010161121d565b5090565b6000819050919050565b61124c81611239565b82525050565b60006020820190506112676000830184611243565b92915050565b7f4e487b7100000000000000000000000000000000000000000000000000000000600052602160045260246000fd5b600281106112ad576112ac61126d565b5b50565b60008190506112be8261129c565b919050565b60006112ce826112b0565b9050919050565b6112de816112c3565b82525050565b60006020820190506112f960008301846112d5565b92915050565b6000604051905090565b600080fd5b600080fd5b61131c81611239565b811461132757600080fd5b50565b60008135905061133981611313565b92915050565b600080fd5b600080fd5b600080fd5b60008083601f8401126113645761136361133f565b5b8235905067ffffffffffffffff81111561138157611380611344565b5b60208301915083602082028301111561139d5761139c611349565b5b9250929050565b6000806000604084860312156113bd576113bc611309565b5b60006113cb8682870161132a565b935050602084013567ffffffffffffffff8111156113ec576113eb61130e565b5b6113f88682870161134e565b92509250509250925092565b60008083601f84011261141a5761141961133f565b5b8235905067ffffffffffffffff81111561143757611436611344565b5b60208301915083600182028301111561145357611452611349565b5b9250929050565b6000806020838503121561147157611470611309565b5b600083013567ffffffffffffffff81111561148f5761148e61130e565b5b61149b85828601611404565b92509250509250929050565b600073ffffffffffffffffffffffffffffffffffffffff82169050919050565b60006114d2826114a7565b9050919050565b6114e2816114c7565b82525050565b60006020820190506114fd60008301846114d9565b92915050565b600080fd5b6000601f19601f8301169050919050565b7f4e487b7100000000000000000000000000000000000000000000000000000000600052604160045260246000fd5b61155182611508565b810181811067ffffffffffffffff821117156115705761156f611519565b5b80604052505050565b60006115836112ff565b905061158f8282611548565b919050565b600067ffffffffffffffff8211156115af576115ae611519565b5b6115b882611508565b9050602081019050919050565b82818337600083830152505050565b60006115e76115e284611594565b611579565b90508281526020810184848401111561160357611602611503565b5b61160e8482856115c5565b509392505050565b600082601f83011261162b5761162a61133f565b5b813561163b8482602086016115d4565b91505092915050565b60006020828403121561165a57611659611309565b5b600082013567ffffffffffffffff8111156116785761167761130e565b5b61168484828501611616565b91505092915050565b60008115159050919050565b6116a28161168d565b82525050565b600081519050919050565b600082825260208201905092915050565b60005b838110156116e25780820151818401526020810190506116c7565b60008484015250505050565b60006116f9826116a8565b61170381856116b3565b93506117138185602086016116c4565b61171c81611508565b840191505092915050565b600060408201905061173c6000830185611699565b818103602083015261174e81846116ee565b90509392505050565b611760816114c7565b811461176b57600080fd5b50565b60008135905061177d81611757565b92915050565b60006020828403121561179957611798611309565b5b60006117a78482850161176e565b91505092915050565b6000819050919050565b60006117d56117d06117cb846114a7565b6117b0565b6114a7565b9050919050565b60006117e7826117ba565b9050919050565b60006117f9826117dc565b9050919050565b611809816117ee565b82525050565b60006020820190506118246000830184611800565b92915050565b6000602082840312156118405761183f611309565b5b600061184e8482850161132a565b91505092915050565b600060408201905061186c60008301856114d9565b61187960208301846114d9565b9392505050565b60006060820190506118956000830186611243565b6118a26020830185611243565b6118af6040830184611243565b949350505050565b6000819050919050565b6118ca816118b7565b82525050565b6118d981611239565b82525050565b600061ffff82169050919050565b6118f6816118df565b82525050565b600063ffffffff82169050919050565b611915816118fc565b82525050565b600082825260208201905092915050565b6000611937826116a8565b611941818561191b565b93506119518185602086016116c4565b61195a81611508565b840191505092915050565b600060c08301600083015161197d60008601826118c1565b50602083015161199060208601826118d0565b5060408301516119a360408601826118ed565b5060608301516119b6606086018261190c565b5060808301516119c9608086018261190c565b5060a083015184820360a08601526119e1828261192c565b9150508091505092915050565b60006020820190508181036000830152611a088184611965565b905092915050565b600081519050611a1f81611313565b92915050565b600060208284031215611a3b57611a3a611309565b5b6000611a4984828501611a10565b91505092915050565b7f4e487b7100000000000000000000000000000000000000000000000000000000600052601160045260246000fd5b6000611a8c82611239565b9150611a9783611239565b9250828203905081811115611aaf57611aae611a52565b5b92915050565b600082825260208201905092915050565b7f4d7573742062652070726f706f736564206f776e657200000000000000000000600082015250565b6000611afc601683611ab5565b9150611b0782611ac6565b602082019050919050565b60006020820190508181036000830152611b2b81611aef565b9050919050565b6000606082019050611b4760008301866114d9565b611b5460208301856114d9565b611b6160408301846114d9565b949350505050565b7f4e487b7100000000000000000000000000000000000000000000000000000000600052603260045260246000fd5b7f4e487b7100000000000000000000000000000000000000000000000000000000600052601260045260246000fd5b6000611bd282611239565b9150611bdd83611239565b925082611bed57611bec611b98565b5b828206905092915050565b600081905092915050565b50565b6000611c13600083611bf8565b9150611c1e82611c03565b600082019050919050565b6000611c3482611c06565b9150819050919050565b611c478161168d565b82525050565b602082016000820151611c636000850182611c3e565b50505050565b6000602082019050611c7e6000830184611c4d565b92915050565b7f4f6e6c792063616c6c61626c65206279206f776e657200000000000000000000600082015250565b6000611cba601683611ab5565b9150611cc582611c84565b602082019050919050565b60006020820190508181036000830152611ce981611cad565b9050919050565b7f43616e6e6f74207472616e7366657220746f2073656c66000000000000000000600082015250565b6000611d26601783611ab5565b9150611d3182611cf0565b602082019050919050565b60006020820190508181036000830152611d5581611d19565b905091905056fea26469706673582212202373880dcf1dfdee223e06c581dbdaaa8be541ea0303a27e9082e9ddf69c2b6a64736f6c63430008130033","linkReferences":{}},"methodIdentifiers":{"acceptOwnership()":"79ba5097","checkUpkeep(bytes)":"6e04ff0d","enterRaffle()":"2cfcc539","getEntranceFee()":"09bc33a7","getLastTimeStamp()":"c1c244e8","getPlayer(uint256)":"e55ae4e8","getRaffleState()":"115cbaf5","getRecentWinner()":"473f1ddc","owner()":"8da5cb5b","performUpkeep(bytes)":"4585e33b","rawFulfillRandomWords(uint256,uint256[])":"1fe543e3","s_vrfCoordinator()":"9eccacf6","setCoordinator(address)":"8ea98117","transferOwnership(address)":"f2fde38b"},"id":39}